:100000000C942A000C943F000C943F000C943F0089
:100010000C943F000C943F000C943F000C943F0064
:100020000C943F000C943F000C943F000C943F0054
:100030000C943F000C943F000C943F000C943F0044
:100040000C943F000C943F000C943F000C943F0034
:100050000C943F0011241FBECFE5D8E0DEBFCDBF1A
:1000600010E0A0E6B0E0ECECF6E002C005900D92E6
:10007000A636B107D9F70E9475010C9464030C945D
:100080000000843008F072C0683008F06FC0413062
:10009000A1F5813089F028F08230C9F0833011F168
:1000A00008952AB381E090E002C0880F991F6A95F5
:1000B000E2F7822B8ABB089527B381E090E002C06B
:1000C000880F991F6A95E2F7822B87BB089524B3A6
:1000D00081E090E002C0880F991F6A95E2F7822BB9
:1000E00084BB089521B381E090E002C0880F991F7E
:1000F0006A95E2F7822B81BB0895411137C08130A8
:1001000091F028F08230D9F0833029F108952AB394
:1001100081E090E002C0880F991F6A95E2F7809510
:1001200082238ABB089527B381E090E002C0880F44
:10013000991F6A95E2F78095822387BB089524B3BF
:1001400081E090E002C0880F991F6A95E2F78095E0
:10015000822384BB089521B381E090E002C0880F20
:10016000991F6A95E2F78095822381BB08958430B8
:1001700008F072C0683008F06FC04130A1F58130DE
:1001800089F028F08230C9F0833011F108952BB343
:1001900081E090E002C0880F991F6A95E2F7822BF8
:1001A0008BBB089528B381E090E002C0880F991FAF
:1001B0006A95E2F7822B88BB089525B381E090E031
:1001C00002C0880F991F6A95E2F7822B85BB0895BC
:1001D00022B381E090E002C0880F991F6A95E2F790
:1001E000822B82BB0895411137C0813091F028F0F5
:1001F0008230D9F0833029F108952BB381E090E06B
:1002000002C0880F991F6A95E2F7809582238BBB05
:10021000089528B381E090E002C0880F991F6A9585
:10022000E2F78095822388BB089525B381E090E0B2
:1002300002C0880F991F6A95E2F78095822385BBDB
:10024000089522B381E090E002C0880F991F6A955B
:10025000E2F78095822382BB0895843070F5683080
:1002600070F5813079F028F08230A9F08330E1F028
:1002700028C089B390E002C0959587956A95E2F70A
:100280008170089586B390E002C0959587956A9530
:10029000E2F78170089583B390E002C09595879549
:1002A0006A95E2F78170089580B390E002C0959559
:1002B00087956A95E2F78170089580E0089580E05F
:1002C000089580E00895843078F4813041F028F07A
:1002D000823039F0833039F008956BBB089568BBE4
:1002E000089565BB089562BB08950E9493010E9422
:1002F000E1010E94F00181508831D8F762E081E08D
:100300000E94A80187EA91E60197F1F700C000007A
:1003100064E080E00E94A80187EA91E60197F1F786
:1003200000C00000E6CF41E060E082E00E944100B2
:1003300041E061E082E00E94410041E062E082E051
:100340000E94410041E063E082E00E944100089584
:10035000CF93DF93C62F8823A1F017C0ED2FF0E0D5
:10036000E05AFF4F608182E00E9463012FE38DE03D
:1003700093E0215080409040E1F700C00000DF5F33
:1003800001C0D0E0DC1750F319C08130B9F414C0BB
:10039000EC2F0C2E000CFF0BE05AFF4F608182E027
:1003A0000E9463012FE38DE093E021508040904054
:1003B000E1F700C00000C150CC2354F7DF91CF918A
:1003C000089541E066E083E00E94410040E062E081
:1003D00083E00E9441001FBC1EBC1DBC1CBC0895D4
:1003E00041E066E083E00E94B70023E02A95F1F740
:1003F000000040E066E083E00E94B7001DBC1CBC2A
:1004000081E08EBD09C08CB59DB581349C4920F03A
:100410001EBC87EE93E0089562E083E00E942D0108
:10042000882389F31DBC1CBC09C08CB59DB58134E3
:100430009C4920F01EBC87EE93E0089562E083E0C3
:100440000E942D01813089F31EBC6CB57DB580E022
:1004500090E00E94D6022DEC3CEC48E652E40E946B
:1004600035020E94A702CB0108950E9449020C9414
:100470002A030E94230358F00E941C0340F029F431
:100480005F3F29F00C94130351110C945E030C94FC
:1004900019030E943B0368F39923B1F3552391F3A9
:1004A000951B550BBB27AA2762177307840738F0E3
:1004B0009F5F5F4F220F331F441FAA1FA9F335D040
:1004C0000E2E3AF0E0E832D091505040E695001CF4
:1004D000CAF72BD0FE2F29D0660F771F881FBB1FAE
:1004E000261737074807AB07B0E809F0BB0B802D8C
:1004F000BF01FF2793585F4F3AF09E3F510578F0B8
:100500000C9413030C945E035F3FE4F3983ED4F322
:10051000869577956795B795F7959F5FC9F7880F8B
:10052000911D9695879597F90895E1E0660F771FDD
:10053000881FBB1F621773078407BA0720F0621B6E
:10054000730B840BBA0BEE1F88F7E09508950E9499
:10055000430388F09F5798F0B92F9927B751B0F00F
:10056000E1F0660F771F881F991F1AF0BA95C9F737
:1005700014C0B13091F00E945D03B1E008950C9475
:100580005D03672F782F8827B85F39F0B93FCCF328
:10059000869577956795B395D9F73EF490958095B4
:1005A000709561957F4F8F4F9F4F0895E89409C0D4
:1005B00097FB3EF490958095709561957F4F8F4F96
:1005C0009F4F9923A9F0F92F96E9BB279395F695AC
:1005D000879577956795B795F111F8CFFAF4BB0F2A
:1005E00011F460FF1BC06F5F7F4F8F4F9F4F16C08E
:1005F000882311F096E911C0772321F09EE8872F18
:10060000762F05C0662371F096E8862F70E060E0D3
:100610002AF09A95660F771F881FDAF7880F96954C
:10062000879597F9089597F99F6780E870E060E0F3
:1006300008959FEF80EC089500240A94161617067B
:1006400018060906089500240A94121613061406C3
:1006500005060895092E0394000C11F4882352F026
:10066000BB0F40F4BF2B11F460FF04C06F5F7F4FDE
:100670008F4F9F4F089557FD9058440F551F59F0C5
:100680005F3F71F04795880F97FB991F61F09F3F7F
:1006900079F087950895121613061406551FF2CFA8
:1006A0004695F1DF08C0161617061806991FF1CFF8
:1006B00086957105610508940895E894BB2766271F
:0C06C0007727CB0197F90895F894FFCF3D
:0606CC000903060C090001
:00000001FF
