:100000000C942A000C9434000C9434000C943400AA
:100010000C9434000C9434000C9434000C94340090
:100020000C9434000C9434000C9434000C94340080
:100030000C9434000C9434000C9434000C94340070
:100040000C9434000C9434000C9434000C94340060
:100050000C94340011241FBECFE5D8E0DEBFCDBF25
:100060000E947F010C9455030C94000087B18F7798
:1000700087B987B1806487B986B1846086B986B153
:10008000826086B986B1816086B986B1806886B99A
:10009000089597B1907E8F71892B87B986B180645E
:1000A00086B9349BFECF86B1806186B924B185B113
:1000B00090E0982F8827822B0895843008F072C032
:1000C000683008F06FC04130A1F5813089F028F028
:1000D0008230C9F0833011F108952AB381E090E0B5
:1000E00002C0880F991F6A95E2F7822B8ABB089598
:1000F00027B381E090E002C0880F991F6A95E2F76C
:10010000822B87BB089524B381E090E002C0880F62
:10011000991F6A95E2F7822B84BB089521B381E091
:1001200090E002C0880F991F6A95E2F7822B81BB8D
:100130000895411137C0813091F028F08230D9F014
:10014000833029F108952AB381E090E002C0880F3E
:10015000991F6A95E2F7809582238ABB089527B399
:1001600081E090E002C0880F991F6A95E2F78095C0
:10017000822387BB089524B381E090E002C0880FFA
:10018000991F6A95E2F78095822384BB089521B375
:1001900081E090E002C0880F991F6A95E2F7809590
:1001A000822381BB0895843008F072C0683008F063
:1001B0006FC04130A1F5813089F028F08230C9F05C
:1001C000833011F108952BB381E090E002C0880FD5
:1001D000991F6A95E2F7822B8BBB089528B381E0C3
:1001E00090E002C0880F991F6A95E2F7822B88BBC6
:1001F000089525B381E090E002C0880F991F6A95A9
:10020000E2F7822B85BB089522B381E090E002C023
:10021000880F991F6A95E2F7822B82BB08954111DE
:1002200037C0813091F028F08230D9F0833029F145
:1002300008952BB381E090E002C0880F991F6A9562
:10024000E2F7809582238BBB089528B381E090E08C
:1002500002C0880F991F6A95E2F78095822388BBB8
:10026000089525B381E090E002C0880F991F6A9538
:10027000E2F78095822385BB089522B381E090E068
:1002800002C0880F991F6A95E2F78095822382BB8E
:100290000895843070F5683070F5813079F028F079
:1002A0008230A9F08330E1F028C089B390E002C029
:1002B000959587956A95E2F78170089586B390E0E9
:1002C00002C0959587956A95E2F78170089583B38A
:1002D00090E002C0959587956A95E2F78170089540
:1002E00080B390E002C0959587956A95E2F781709A
:1002F000089580E0089580E0089580E008950E94C8
:10030000E7010E94360041E060E082E00E945D006B
:1003100040E064E082E00E945D0041E064E082E051
:100320000E94D30064E082E00E94490181111BC059
:100330008AE590E00E940A022FEF80E792E02150C8
:1003400080409040E1F700C0000080E090E00E9413
:100350000A022FEF80E792E0215080409040E1F7C1
:1003600000C0000004C080E090E00E940A0280E02B
:100370000E944900BC0180E090E00E94270220E03A
:1003800030E040EA50E40E94880220E030E040E89B
:100390005AE30E94880225B32E7F25BB20E030E07F
:1003A00040E050E40E942202882324F485B3816057
:1003B00085BB03C085B38E7F85BB2FEF81EE94E0B4
:1003C000215080409040E1F700C00000ABCF81B3E6
:1003D000806281BB8FB58E7F8FBD8FB582608FBDF0
:1003E0008EB588608EBD8EB580618EBD8FB58068FC
:1003F0008FBD8FB58F7B8FBD83EC99E097BD86BD98
:100400008EB58E7F8EBD8EB582608EBD8EB58B7F94
:100410008EBD0895853B08F084EB9DE7899F900190
:100420001124A3E8BDE20E94460396958795929514
:1004300082958F7089279F70892783589F4F9BBD16
:100440008ABD08950E94640208F481E00895E8944A
:1004500009C097FB3EF490958095709561957F4F0C
:100460008F4F9F4F9923A9F0F92F96E9BB279395BA
:10047000F695879577956795B795F111F8CFFAF4CA
:10048000BB0F11F460FF1BC06F5F7F4F8F4F9F4FFB
:1004900016C0882311F096E911C0772321F09EE859
:1004A000872F762F05C0662371F096E8862F70E0BF
:1004B00060E02AF09A95660F771F881FDAF7880F99
:1004C0009695879597F90895990F0008550FAA0BEF
:1004D000E0E8FEEF16161706E807F907C0F0121657
:1004E0001306E407F50798F0621B730B840B950B5A
:1004F00039F40A2661F0232B242B252B21F40895AF
:100500000A2609F4A140A6958FEF811D811D08954B
:100510000E949B020C940C030E94FE0238F00E9481
:10052000050320F0952311F00C94F5020C94FB02C6
:1005300011240C9440030E941D0370F3959FC1F396
:10054000950F50E0551F629FF001729FBB27F00D81
:10055000B11D639FAA27F00DB11DAA1F649F6627D6
:10056000B00DA11D661F829F2227B00DA11D621F25
:10057000739FB00DA11D621F839FA00D611D221FDF
:10058000749F3327A00D611D231F849F600D211DC3
:10059000822F762F6A2F11249F5750409AF0F1F046
:1005A00088234AF0EE0FFF1FBB1F661F771F881FAF
:1005B00091505040A9F79E3F510580F00C94F502F0
:1005C0000C9440035F3FE4F3983ED4F3869577950F
:1005D0006795B795F795E7959F5FC1F7FE2B880F55
:1005E000911D9695879597F9089597F99F6780E8EB
:1005F00070E060E008959FEF80EC089500240A9475
:100600001616170618060906089500240A941216ED
:100610001306140605060895092E0394000C11F420
:10062000882352F0BB0F40F4BF2B11F460FF04C0CD
:100630006F5F7F4F8F4F9F4F089557FD9058440F26
:10064000551F59F05F3F71F04795880F97FB991F31
:1006500061F09F3F79F087950895121613061406EE
:10066000551FF2CF4695F1DF08C01616170618067B
:10067000991FF1CF86957105610508940895E89456
:10068000BB2766277727CB0197F90895A29FB00172
:10069000B39FC001A39F700D811D1124911DB29FB6
:0E06A000700D811D1124911D0895F894FFCF57
:00000001FF
