:100000000C942A000C9447000C9447000C94470071
:100010000C9447000C9447000C9447000C94470044
:100020000C9447000C9447000C9447000C94470034
:100030000C9447000C947D040C9447000C944700EA
:100040000C9447000C9447000C9447000C94470014
:100050000C94470011241FBECFE5D8E0DEBFCDBF12
:1000600010E0A0E6B0E0E0E4F9E002C005900D92F7
:10007000AC39B107D9F720E0ACE9B0E001C01D927E
:10008000AE39B207E1F70E9445030C949E040C942C
:100090000000843008F072C0683008F06FC0413052
:1000A000A1F5813089F028F08230C9F0833011F158
:1000B00008952AB381E090E002C0880F991F6A95E5
:1000C000E2F7822B8ABB089527B381E090E002C05B
:1000D000880F991F6A95E2F7822B87BB089524B396
:1000E00081E090E002C0880F991F6A95E2F7822BA9
:1000F00084BB089521B381E090E002C0880F991F6E
:100100006A95E2F7822B81BB0895411137C0813097
:1001100091F028F08230D9F0833029F108952AB384
:1001200081E090E002C0880F991F6A95E2F7809500
:1001300082238ABB089527B381E090E002C0880F34
:10014000991F6A95E2F78095822387BB089524B3AF
:1001500081E090E002C0880F991F6A95E2F78095D0
:10016000822384BB089521B381E090E002C0880F10
:10017000991F6A95E2F78095822381BB08958430A8
:1001800008F072C0683008F06FC04130A1F58130CE
:1001900089F028F08230C9F0833011F108952BB333
:1001A00081E090E002C0880F991F6A95E2F7822BE8
:1001B0008BBB089528B381E090E002C0880F991F9F
:1001C0006A95E2F7822B88BB089525B381E090E021
:1001D00002C0880F991F6A95E2F7822B85BB0895AC
:1001E00022B381E090E002C0880F991F6A95E2F780
:1001F000822B82BB0895411137C0813091F028F0E5
:100200008230D9F0833029F108952BB381E090E05A
:1002100002C0880F991F6A95E2F7809582238BBBF5
:10022000089528B381E090E002C0880F991F6A9575
:10023000E2F78095822388BB089525B381E090E0A2
:1002400002C0880F991F6A95E2F78095822385BBCB
:10025000089522B381E090E002C0880F991F6A954B
:10026000E2F78095822382BB0895843070F5683070
:1002700070F5813079F028F08230A9F08330E1F018
:1002800028C089B390E002C0959587956A95E2F7FA
:100290008170089586B390E002C0959587956A9520
:1002A000E2F78170089583B390E002C09595879539
:1002B0006A95E2F78170089580B390E002C0959549
:1002C00087956A95E2F78170089580E0089580E04F
:1002D000089580E00895843078F4813041F028F06A
:1002E000823039F0833039F008956ABB089567BBD6
:1002F000089564BB089561BB0895843078F481301B
:1003000041F028F0823039F0833039F008956BBB2A
:10031000089568BB089565BB089562BB089585B7CD
:10032000816085BF85B78D7F85BF85B7846085BFB8
:1003300085B7877F85BF8BB780648BBF8BB780689D
:100340008BBF0895CF93C82F40E062E081E00E9408
:10035000BF0040E061E081E00E94BF006C2F80E0C0
:100360000E947D0141E060E081E00E94BF0089EFD2
:1003700090E00197F1F700C0000040E060E081E00C
:100380000E94BF0089EF90E00197F1F700C00000E4
:10039000CF9108956FEF80E00E946B0141E060E033
:1003A00081E00E94490041E061E081E00E94490053
:1003B00041E062E081E00E9449008FE097E201970E
:1003C000F1F700C0000088E30E94A20183EC99E0ED
:1003D0000197F1F700C000008CE00E94A20183ECBD
:1003E00099E00197F1F700C0000081E00E94A201AE
:1003F00087E893E10197F1F700C000000895CF93DB
:10040000C82F41E062E081E00E94BF0040E061E06F
:1004100081E00E94BF006C2F80E00E947D0141E0DE
:1004200060E081E00E94BF0089EF90E00197F1F762
:1004300000C0000040E060E081E00E94BF0081EE6B
:1004400094E00197F1F700C00000CF9108951F9349
:10045000CF93DF93CDB7DEB72B970FB6F894DEBFFF
:100460000FBECDBFAC01892BA1F580E30E94FF0137
:1004700044C09A01ADECBCEC0E948F049695879520
:1004800096958795969587959C01220F331F880F27
:10049000991F880F991F880F991F820F931F9A0128
:1004A000281B390BC901E1E0F0E0EC0FFD1FE10F63
:1004B000F11D17FDFA95805D80839A010E948F04DB
:1004C000AC015695479556954795569547951F5FAC
:1004D00001C010E04115510561F611500CC0E1E07A
:1004E000F0E0EC0FFD1FE10FF11D17FDFA95808183
:1004F0000E94FF011150112394F72B960FB6F89428
:10050000DEBF0FBECDBFDF91CF911F910895CF9376
:10051000DF93EC0103C00E94FF01219688818111C5
:10052000FACFDF91CF910895CF93C4E00BC041E0A3
:100530006C2F81E00E94490041E06C2F81E00E9415
:10054000BF00CF5FC83098F3C4E00BC040E06C2F11
:1005500082E00E94490041E06C2F82E00E94BF00CF
:10056000CF5FC83098F3CF910895FF920F931F93F8
:10057000CF93DF93FF24FA9410E031C004E0010F21
:1005800040E0602F81E00E94BF00D0E020C0C4E0C6
:10059000CD0F6C2F82E00E943501811117C087E8D2
:1005A00093E10197F1F700C00000E12FF0E0EE0FBA
:1005B000FF1FEE0FFF1FE05AFF4FED0FF11DF08000
:1005C0006C2F82E00E9435018823D1F3DF5FD430A5
:1005D000F0F241E0602F81E00E94BF001F5F143005
:1005E00068F28F2DDF91CF911F910F91FF900895A9
:1005F0000F931F93CF93DF9381E00E94A20183EFBB
:1006000091E00197F1F700C0000080E790E00E94C0
:10061000870280EC0E94A20110E000E00E94B50277
:1006200090ED980F9A30B0F4C12FD02FCC0FDD1F72
:100630009E01220F331F220F331FC20FD31FC80F7B
:10064000D11DE097C536D10548F70E94FF011C2F48
:100650000D2FE4CF8D3379F0833401F780EC0E94C5
:10066000A2018DE790E00E94870280EC0E94A20127
:1006700010E000E0D3CF0E94B5028F3FE1F7812F59
:10068000DF91CF911F910F9108950E948F010E94D9
:100690005C040E94CA010E9494020E94F3030E941B
:1006A000F802082F10E08FEF809F9001819F300D9E
:1006B00011243695279536952795ABE7B4E10E942E
:1006C0008F047C01F694E794CE2D81E00E94A20174
:1006D00083EF91E00197F1F700C000008EE890E011
:1006E0000E948702C8010E94270285E990E00E94CB
:1006F0008702C70199270E9427028FB780688FBFA2
:1007000063E083E00E9435018111FACF0E947404F6
:100710008C34B9F028F4823461F0863431F0F0CFB3
:10072000823559F0833589F0EBCF8C2F0E94A803D6
:10073000E7CF8C2F0E94B703E3CF8C2F0E94C70313
:10074000DFCF8C2F0E94D603DBCF0E94E603D8CFE9
:10075000CF93C82F0E9450048C2F0E94520480E037
:100760000E94560480E00E945A04CF910895CF93CE
:10077000C82F80E00E94500480E00E9452048C2F19
:100780000E9456048C2F0E945A04CF910895CF9353
:10079000C82F0E94500480E00E94520480E00E9412
:1007A00056048C2F0E945A04CF910895CF93C82FDE
:1007B00080E00E9450048C2F0E9452048C2F0E94D3
:1007C000560480E00E945A04CF91089580E00E9470
:1007D000500480E00E94520480E00E94560480E0B1
:1007E0000E945A0408950E94F8030E94E6030895A7
:1007F00087B3886087BB81B3806281BB81B380612E
:1008000081BB81B3806881BB83B7806483BF83B7BA
:10081000886083BF83B7806283BF83B78F7E83BFC7
:1008200083B7826083BF83B7816083BF83B78B7FC9
:1008300083BF8FB581608FBD8FB58D7F8FBD8EB526
:1008400088608EBD8EB58F7E8EBD8FB580688FBD62
:100850008FB58F7B8FBD8FB580628FBD8FB58F7E3B
:100860008FBD8EB582608EBD8EB581608EBD8EB51A
:100870008B7F8EBD85B5806485BD85B5886085BD5F
:1008800085B5806285BD85B58F7E85BD85B5846063
:1008900085BD85B58D7F85BD85B58E7F85BD089568
:1008A0008CBF089590E09BBD8ABD089590E099BDEE
:1008B00088BD089583BD08958BB182608BB98BB1DB
:1008C0008E7F8BB98AB180688AB98AB180618AB912
:1008D0008AB188608AB98AB18B7F8AB986E880BD7F
:1008E0008CE089B910BC089580919C008823E1F3C5
:1008F00080919D0010929C0008951F920F920FB658
:100900000F9211248F938CB180939D0081E080938E
:100910009C008F910F900FBE0F901F901895A29F73
:10092000B001B39FC001A39F700D811D1124911DC3
:10093000B29F700D811D1124911D0895F894FFCF71
:100940003738392F3435362A3132332D43303D2B69
:10095000456E7465722053706565643A00202020EE
:100960002020202020202020202020202000537024
:0C0970006565643D002050574D3D0000BF
:00000001FF
